{
  "contractName": "CareerChainToken",
  "abi": [
    {
      "constant": true,
      "inputs": [],
      "name": "mintingFinished",
      "outputs": [
        {
          "name": "",
          "type": "bool"
        }
      ],
      "payable": false,
      "stateMutability": "view",
      "type": "function"
    },
    {
      "constant": true,
      "inputs": [],
      "name": "name",
      "outputs": [
        {
          "name": "",
          "type": "string"
        }
      ],
      "payable": false,
      "stateMutability": "view",
      "type": "function"
    },
    {
      "constant": false,
      "inputs": [
        {
          "name": "_spender",
          "type": "address"
        },
        {
          "name": "_value",
          "type": "uint256"
        }
      ],
      "name": "approve",
      "outputs": [
        {
          "name": "",
          "type": "bool"
        }
      ],
      "payable": false,
      "stateMutability": "nonpayable",
      "type": "function"
    },
    {
      "constant": true,
      "inputs": [],
      "name": "totalSupply",
      "outputs": [
        {
          "name": "",
          "type": "uint256"
        }
      ],
      "payable": false,
      "stateMutability": "view",
      "type": "function"
    },
    {
      "constant": false,
      "inputs": [
        {
          "name": "_from",
          "type": "address"
        },
        {
          "name": "_to",
          "type": "address"
        },
        {
          "name": "_value",
          "type": "uint256"
        }
      ],
      "name": "transferFrom",
      "outputs": [
        {
          "name": "",
          "type": "bool"
        }
      ],
      "payable": false,
      "stateMutability": "nonpayable",
      "type": "function"
    },
    {
      "constant": true,
      "inputs": [],
      "name": "decimals",
      "outputs": [
        {
          "name": "",
          "type": "uint8"
        }
      ],
      "payable": false,
      "stateMutability": "view",
      "type": "function"
    },
    {
      "constant": true,
      "inputs": [],
      "name": "cap",
      "outputs": [
        {
          "name": "",
          "type": "uint256"
        }
      ],
      "payable": false,
      "stateMutability": "view",
      "type": "function"
    },
    {
      "constant": false,
      "inputs": [
        {
          "name": "_to",
          "type": "address"
        },
        {
          "name": "_amount",
          "type": "uint256"
        }
      ],
      "name": "mint",
      "outputs": [
        {
          "name": "",
          "type": "bool"
        }
      ],
      "payable": false,
      "stateMutability": "nonpayable",
      "type": "function"
    },
    {
      "constant": false,
      "inputs": [
        {
          "name": "_spender",
          "type": "address"
        },
        {
          "name": "_subtractedValue",
          "type": "uint256"
        }
      ],
      "name": "decreaseApproval",
      "outputs": [
        {
          "name": "",
          "type": "bool"
        }
      ],
      "payable": false,
      "stateMutability": "nonpayable",
      "type": "function"
    },
    {
      "constant": true,
      "inputs": [
        {
          "name": "_owner",
          "type": "address"
        }
      ],
      "name": "balanceOf",
      "outputs": [
        {
          "name": "",
          "type": "uint256"
        }
      ],
      "payable": false,
      "stateMutability": "view",
      "type": "function"
    },
    {
      "constant": false,
      "inputs": [],
      "name": "finishMinting",
      "outputs": [
        {
          "name": "",
          "type": "bool"
        }
      ],
      "payable": false,
      "stateMutability": "nonpayable",
      "type": "function"
    },
    {
      "constant": true,
      "inputs": [],
      "name": "owner",
      "outputs": [
        {
          "name": "",
          "type": "address"
        }
      ],
      "payable": false,
      "stateMutability": "view",
      "type": "function"
    },
    {
      "constant": true,
      "inputs": [],
      "name": "symbol",
      "outputs": [
        {
          "name": "",
          "type": "string"
        }
      ],
      "payable": false,
      "stateMutability": "view",
      "type": "function"
    },
    {
      "constant": false,
      "inputs": [
        {
          "name": "_to",
          "type": "address"
        },
        {
          "name": "_value",
          "type": "uint256"
        }
      ],
      "name": "transfer",
      "outputs": [
        {
          "name": "",
          "type": "bool"
        }
      ],
      "payable": false,
      "stateMutability": "nonpayable",
      "type": "function"
    },
    {
      "constant": false,
      "inputs": [
        {
          "name": "_spender",
          "type": "address"
        },
        {
          "name": "_addedValue",
          "type": "uint256"
        }
      ],
      "name": "increaseApproval",
      "outputs": [
        {
          "name": "",
          "type": "bool"
        }
      ],
      "payable": false,
      "stateMutability": "nonpayable",
      "type": "function"
    },
    {
      "constant": true,
      "inputs": [
        {
          "name": "_owner",
          "type": "address"
        },
        {
          "name": "_spender",
          "type": "address"
        }
      ],
      "name": "allowance",
      "outputs": [
        {
          "name": "",
          "type": "uint256"
        }
      ],
      "payable": false,
      "stateMutability": "view",
      "type": "function"
    },
    {
      "constant": false,
      "inputs": [
        {
          "name": "newOwner",
          "type": "address"
        }
      ],
      "name": "transferOwnership",
      "outputs": [],
      "payable": false,
      "stateMutability": "nonpayable",
      "type": "function"
    },
    {
      "anonymous": false,
      "inputs": [
        {
          "indexed": true,
          "name": "burner",
          "type": "address"
        },
        {
          "indexed": false,
          "name": "value",
          "type": "uint256"
        }
      ],
      "name": "Burn",
      "type": "event"
    },
    {
      "anonymous": false,
      "inputs": [
        {
          "indexed": true,
          "name": "to",
          "type": "address"
        },
        {
          "indexed": false,
          "name": "amount",
          "type": "uint256"
        }
      ],
      "name": "Mint",
      "type": "event"
    },
    {
      "anonymous": false,
      "inputs": [],
      "name": "MintFinished",
      "type": "event"
    },
    {
      "anonymous": false,
      "inputs": [
        {
          "indexed": true,
          "name": "previousOwner",
          "type": "address"
        },
        {
          "indexed": true,
          "name": "newOwner",
          "type": "address"
        }
      ],
      "name": "OwnershipTransferred",
      "type": "event"
    },
    {
      "anonymous": false,
      "inputs": [
        {
          "indexed": true,
          "name": "owner",
          "type": "address"
        },
        {
          "indexed": true,
          "name": "spender",
          "type": "address"
        },
        {
          "indexed": false,
          "name": "value",
          "type": "uint256"
        }
      ],
      "name": "Approval",
      "type": "event"
    },
    {
      "anonymous": false,
      "inputs": [
        {
          "indexed": true,
          "name": "from",
          "type": "address"
        },
        {
          "indexed": true,
          "name": "to",
          "type": "address"
        },
        {
          "indexed": false,
          "name": "value",
          "type": "uint256"
        }
      ],
      "name": "Transfer",
      "type": "event"
    },
    {
      "constant": false,
      "inputs": [
        {
          "name": "_value",
          "type": "uint256"
        }
      ],
      "name": "burn",
      "outputs": [],
      "payable": false,
      "stateMutability": "nonpayable",
      "type": "function"
    }
  ],
  "bytecode": "0x6003805460a060020a60ff021916905560c0604052601160808190527f436172656572436861696e20546f6b656e00000000000000000000000000000060a090815261004e91600591906100d2565b506040805180820190915260038082527f43434800000000000000000000000000000000000000000000000000000000006020909201918252610093916006916100d2565b506007805460ff1916601217905560038054600160a060020a033316600160a060020a03199091161790556a7825e239350f1ff1dc000060045561016d565b828054600181600116156101000203166002900490600052602060002090601f016020900481019282601f1061011357805160ff1916838001178555610140565b82800160010185558215610140579182015b82811115610140578251825591602001919060010190610125565b5061014c929150610150565b5090565b61016a91905b8082111561014c5760008155600101610156565b90565b610d9f8061017c6000396000f3006080604052600436106100fb5763ffffffff7c010000000000000000000000000000000000000000000000000000000060003504166305d2035b811461010057806306fdde0314610129578063095ea7b3146101b357806318160ddd146101d757806323b872dd146101fe578063313ce56714610228578063355274ea1461025357806340c10f191461026857806342966c681461028c57806366188463146102a657806370a08231146102ca5780637d64bcb4146102eb5780638da5cb5b1461030057806395d89b4114610331578063a9059cbb14610346578063d73dd6231461036a578063dd62ed3e1461038e578063f2fde38b146103b5575b600080fd5b34801561010c57600080fd5b506101156103d6565b604080519115158252519081900360200190f35b34801561013557600080fd5b5061013e6103e6565b6040805160208082528351818301528351919283929083019185019080838360005b83811015610178578181015183820152602001610160565b50505050905090810190601f1680156101a55780820380516001836020036101000a031916815260200191505b509250505060405180910390f35b3480156101bf57600080fd5b50610115600160a060020a0360043516602435610474565b3480156101e357600080fd5b506101ec6104de565b60408051918252519081900360200190f35b34801561020a57600080fd5b50610115600160a060020a03600435811690602435166044356104e4565b34801561023457600080fd5b5061023d610652565b6040805160ff9092168252519081900360200190f35b34801561025f57600080fd5b506101ec61065b565b34801561027457600080fd5b50610115600160a060020a0360043516602435610661565b34801561029857600080fd5b506102a46004356106c8565b005b3480156102b257600080fd5b50610115600160a060020a03600435166024356106f0565b3480156102d657600080fd5b506101ec600160a060020a03600435166107e9565b3480156102f757600080fd5b50610115610804565b34801561030c57600080fd5b5061031561088c565b60408051600160a060020a039092168252519081900360200190f35b34801561033d57600080fd5b5061013e61089b565b34801561035257600080fd5b50610115600160a060020a03600435166024356108f6565b34801561037657600080fd5b50610115600160a060020a03600435166024356109dd565b34801561039a57600080fd5b506101ec600160a060020a0360043581169060243516610a7f565b3480156103c157600080fd5b506102a4600160a060020a0360043516610aaa565b60035460a060020a900460ff1681565b6005805460408051602060026001851615610100026000190190941693909304601f8101849004840282018401909252818152929183018282801561046c5780601f106104415761010080835404028352916020019161046c565b820191906000526020600020905b81548152906001019060200180831161044f57829003601f168201915b505050505081565b600160a060020a03338116600081815260026020908152604080832094871680845294825280832086905580518681529051929493927f8c5be1e5ebec7d5bd14f71427d1e84f3dd0314c0f7b2291e5b200ac8c7c3b925929181900390910190a350600192915050565b60015490565b6000600160a060020a03831615156104fb57600080fd5b600160a060020a03841660009081526020819052604090205482111561052057600080fd5b600160a060020a038085166000908152600260209081526040808320339094168352929052205482111561055357600080fd5b600160a060020a03841660009081526020819052604090205461057c908363ffffffff610b4316565b600160a060020a0380861660009081526020819052604080822093909355908516815220546105b1908363ffffffff610b5516565b600160a060020a03808516600090815260208181526040808320949094558783168252600281528382203390931682529190915220546105f7908363ffffffff610b4316565b600160a060020a03808616600081815260026020908152604080832033861684528252918290209490945580518681529051928716939192600080516020610d54833981519152929181900390910190a35060019392505050565b60075460ff1681565b60045481565b60035460009033600160a060020a0390811691161461067f57600080fd5b60035460a060020a900460ff161561069657600080fd5b6004546001546106ac908463ffffffff610b5516565b11156106b757600080fd5b6106c18383610b68565b9392505050565b60035433600160a060020a039081169116146106e357600080fd5b6106ed3382610c64565b50565b600160a060020a0333811660009081526002602090815260408083209386168352929052908120548083111561074d57600160a060020a033381166000908152600260209081526040808320938816835292905290812055610784565b61075d818463ffffffff610b4316565b600160a060020a033381166000908152600260209081526040808320938916835292905220555b600160a060020a0333811660008181526002602090815260408083209489168084529482529182902054825190815291517f8c5be1e5ebec7d5bd14f71427d1e84f3dd0314c0f7b2291e5b200ac8c7c3b9259281900390910190a35060019392505050565b600160a060020a031660009081526020819052604090205490565b60035460009033600160a060020a0390811691161461082257600080fd5b60035460a060020a900460ff161561083957600080fd5b6003805474ff0000000000000000000000000000000000000000191660a060020a1790556040517fae5184fba832cb2b1f702aca6117b8d265eaf03ad33eb133f19dde0f5920fa0890600090a150600190565b600354600160a060020a031681565b6006805460408051602060026001851615610100026000190190941693909304601f8101849004840282018401909252818152929183018282801561046c5780601f106104415761010080835404028352916020019161046c565b6000600160a060020a038316151561090d57600080fd5b600160a060020a03331660009081526020819052604090205482111561093257600080fd5b600160a060020a03331660009081526020819052604090205461095b908363ffffffff610b4316565b600160a060020a033381166000908152602081905260408082209390935590851681522054610990908363ffffffff610b5516565b600160a060020a0380851660008181526020818152604091829020949094558051868152905191933390931692600080516020610d5483398151915292918290030190a350600192915050565b600160a060020a033381166000908152600260209081526040808320938616835292905290812054610a15908363ffffffff610b5516565b600160a060020a0333811660008181526002602090815260408083209489168084529482529182902085905581519485529051929391927f8c5be1e5ebec7d5bd14f71427d1e84f3dd0314c0f7b2291e5b200ac8c7c3b9259281900390910190a350600192915050565b600160a060020a03918216600090815260026020908152604080832093909416825291909152205490565b60035433600160a060020a03908116911614610ac557600080fd5b600160a060020a0381161515610ada57600080fd5b600354604051600160a060020a038084169216907f8be0079c531659141344cd1fd0a4f28419497f9722a3daafe3b4186f6b6457e090600090a36003805473ffffffffffffffffffffffffffffffffffffffff1916600160a060020a0392909216919091179055565b600082821115610b4f57fe5b50900390565b81810182811015610b6257fe5b92915050565b60035460009033600160a060020a03908116911614610b8657600080fd5b60035460a060020a900460ff1615610b9d57600080fd5b600154610bb0908363ffffffff610b5516565b600155600160a060020a038316600090815260208190526040902054610bdc908363ffffffff610b5516565b600160a060020a03841660008181526020818152604091829020939093558051858152905191927f0f6798a560793a54c3bcfe86a93cde1e73087d944c0ea20544137d412139688592918290030190a2604080518381529051600160a060020a03851691600091600080516020610d548339815191529181900360200190a350600192915050565b600160a060020a038216600090815260208190526040902054811115610c8957600080fd5b600160a060020a038216600090815260208190526040902054610cb2908263ffffffff610b4316565b600160a060020a038316600090815260208190526040902055600154610cde908263ffffffff610b4316565b600155604080518281529051600160a060020a038416917fcc16f5dbb4873280815c1ee09dbd06736cffcc184412cf7a71a0fdb75d397ca5919081900360200190a2604080518281529051600091600160a060020a03851691600080516020610d548339815191529181900360200190a350505600ddf252ad1be2c89b69c2b068fc378daa952ba7f163c4a11628f55a4df523b3efa165627a7a72305820d48eb21cb033b733ae5e8a2e040051fda4d982e48b0ddc61fe94069525fd4b8d0029",
  "source": "pragma solidity 0.4.23;\r\n\r\nimport \"./../node_modules/openzeppelin-solidity/contracts/token/ERC20/CappedToken.sol\";\r\nimport \"./../node_modules/openzeppelin-solidity/contracts/token/ERC20/BurnableToken.sol\";\r\n\r\n//CCH is a capped token with a max supply of 145249999 tokenSupply\r\n//It is a burnable token as well\r\ncontract CareerChainToken is CappedToken(145249999000000000000000000), BurnableToken  {\r\n    string public name = \"CareerChain Token\";\r\n    string public symbol = \"CCH\";\r\n    uint8 public decimals = 18;\r\n\r\n    //only the owner is allowed to burn tokens\r\n    function burn(uint256 _value) public onlyOwner {\r\n      _burn(msg.sender, _value);\r\n\r\n    }\r\n\r\n}\r\n",
  "sourcePath": "C:\\Users\\Victor van der Hulst\\SyncedFolder\\Victor\\CareerChain\\private sale SC_Lockup - Git\\contracts\\CareerChainToken.sol",
  "compiler": {
    "name": "solc",
    "version": "0.4.23+commit.124ca40d.Emscripten.clang"
  },
  "schemaVersion": "2.0.0",
  "updatedAt": "2018-06-03T07:16:02.743Z"
}