{
  "contractName": "TranchedLockupPresale",
  "abi": [
    {
      "constant": true,
      "inputs": [],
      "name": "hasClosed",
      "outputs": [
        {
          "name": "",
          "type": "bool"
        }
      ],
      "payable": false,
      "stateMutability": "view",
      "type": "function"
    },
    {
      "constant": true,
      "inputs": [
        {
          "name": "",
          "type": "address"
        }
      ],
      "name": "balances",
      "outputs": [
        {
          "name": "",
          "type": "uint256"
        }
      ],
      "payable": false,
      "stateMutability": "view",
      "type": "function"
    },
    {
      "constant": true,
      "inputs": [],
      "name": "rate",
      "outputs": [
        {
          "name": "",
          "type": "uint256"
        }
      ],
      "payable": false,
      "stateMutability": "view",
      "type": "function"
    },
    {
      "constant": true,
      "inputs": [],
      "name": "weiRaised",
      "outputs": [
        {
          "name": "",
          "type": "uint256"
        }
      ],
      "payable": false,
      "stateMutability": "view",
      "type": "function"
    },
    {
      "constant": true,
      "inputs": [],
      "name": "closingTime",
      "outputs": [
        {
          "name": "",
          "type": "uint256"
        }
      ],
      "payable": false,
      "stateMutability": "view",
      "type": "function"
    },
    {
      "constant": true,
      "inputs": [],
      "name": "wallet",
      "outputs": [
        {
          "name": "",
          "type": "address"
        }
      ],
      "payable": false,
      "stateMutability": "view",
      "type": "function"
    },
    {
      "constant": true,
      "inputs": [
        {
          "name": "",
          "type": "uint256"
        }
      ],
      "name": "lockupEndTime",
      "outputs": [
        {
          "name": "",
          "type": "uint256"
        }
      ],
      "payable": false,
      "stateMutability": "view",
      "type": "function"
    },
    {
      "constant": false,
      "inputs": [
        {
          "name": "_beneficiary",
          "type": "address"
        }
      ],
      "name": "removeFromWhitelist",
      "outputs": [],
      "payable": false,
      "stateMutability": "nonpayable",
      "type": "function"
    },
    {
      "constant": false,
      "inputs": [
        {
          "name": "_beneficiaries",
          "type": "address[]"
        }
      ],
      "name": "addManyToWhitelist",
      "outputs": [],
      "payable": false,
      "stateMutability": "nonpayable",
      "type": "function"
    },
    {
      "constant": true,
      "inputs": [],
      "name": "owner",
      "outputs": [
        {
          "name": "",
          "type": "address"
        }
      ],
      "payable": false,
      "stateMutability": "view",
      "type": "function"
    },
    {
      "constant": true,
      "inputs": [
        {
          "name": "",
          "type": "address"
        }
      ],
      "name": "released",
      "outputs": [
        {
          "name": "",
          "type": "uint256"
        }
      ],
      "payable": false,
      "stateMutability": "view",
      "type": "function"
    },
    {
      "constant": true,
      "inputs": [
        {
          "name": "",
          "type": "address"
        }
      ],
      "name": "whitelist",
      "outputs": [
        {
          "name": "",
          "type": "bool"
        }
      ],
      "payable": false,
      "stateMutability": "view",
      "type": "function"
    },
    {
      "constant": true,
      "inputs": [],
      "name": "stagedVestedLockUpAmounts",
      "outputs": [
        {
          "name": "",
          "type": "uint256"
        }
      ],
      "payable": false,
      "stateMutability": "view",
      "type": "function"
    },
    {
      "constant": true,
      "inputs": [],
      "name": "tokensStillInLockup",
      "outputs": [
        {
          "name": "",
          "type": "uint256"
        }
      ],
      "payable": false,
      "stateMutability": "view",
      "type": "function"
    },
    {
      "constant": true,
      "inputs": [],
      "name": "openingTime",
      "outputs": [
        {
          "name": "",
          "type": "uint256"
        }
      ],
      "payable": false,
      "stateMutability": "view",
      "type": "function"
    },
    {
      "constant": true,
      "inputs": [],
      "name": "firstVestedLockUpAmount",
      "outputs": [
        {
          "name": "",
          "type": "uint256"
        }
      ],
      "payable": false,
      "stateMutability": "view",
      "type": "function"
    },
    {
      "constant": false,
      "inputs": [
        {
          "name": "_beneficiary",
          "type": "address"
        }
      ],
      "name": "addToWhitelist",
      "outputs": [],
      "payable": false,
      "stateMutability": "nonpayable",
      "type": "function"
    },
    {
      "constant": false,
      "inputs": [
        {
          "name": "_beneficiary",
          "type": "address"
        }
      ],
      "name": "buyTokens",
      "outputs": [],
      "payable": true,
      "stateMutability": "payable",
      "type": "function"
    },
    {
      "constant": false,
      "inputs": [
        {
          "name": "newOwner",
          "type": "address"
        }
      ],
      "name": "transferOwnership",
      "outputs": [],
      "payable": false,
      "stateMutability": "nonpayable",
      "type": "function"
    },
    {
      "constant": true,
      "inputs": [],
      "name": "token",
      "outputs": [
        {
          "name": "",
          "type": "address"
        }
      ],
      "payable": false,
      "stateMutability": "view",
      "type": "function"
    },
    {
      "inputs": [
        {
          "name": "_openingTime",
          "type": "uint256"
        },
        {
          "name": "_closingTime",
          "type": "uint256"
        },
        {
          "name": "_rate",
          "type": "uint256"
        },
        {
          "name": "_wallet",
          "type": "address"
        },
        {
          "name": "_lockupEndTime",
          "type": "uint256[6]"
        },
        {
          "name": "_firstVestedLockUpAmount",
          "type": "uint256"
        },
        {
          "name": "_stagedVestedLockUpAmounts",
          "type": "uint256"
        },
        {
          "name": "_token",
          "type": "address"
        }
      ],
      "payable": false,
      "stateMutability": "nonpayable",
      "type": "constructor"
    },
    {
      "payable": true,
      "stateMutability": "payable",
      "type": "fallback"
    },
    {
      "anonymous": false,
      "inputs": [
        {
          "indexed": true,
          "name": "previousOwner",
          "type": "address"
        },
        {
          "indexed": true,
          "name": "newOwner",
          "type": "address"
        }
      ],
      "name": "OwnershipTransferred",
      "type": "event"
    },
    {
      "anonymous": false,
      "inputs": [
        {
          "indexed": true,
          "name": "purchaser",
          "type": "address"
        },
        {
          "indexed": true,
          "name": "beneficiary",
          "type": "address"
        },
        {
          "indexed": false,
          "name": "value",
          "type": "uint256"
        },
        {
          "indexed": false,
          "name": "amount",
          "type": "uint256"
        }
      ],
      "name": "TokenPurchase",
      "type": "event"
    },
    {
      "constant": false,
      "inputs": [
        {
          "name": "_beneficiary",
          "type": "address"
        }
      ],
      "name": "TransferUnsoldTokensBackToTokenContract",
      "outputs": [],
      "payable": false,
      "stateMutability": "nonpayable",
      "type": "function"
    },
    {
      "constant": false,
      "inputs": [
        {
          "name": "_beneficiary",
          "type": "address"
        },
        {
          "name": "_amount",
          "type": "uint256"
        }
      ],
      "name": "IssueTokensToInvestors",
      "outputs": [],
      "payable": false,
      "stateMutability": "nonpayable",
      "type": "function"
    },
    {
      "constant": false,
      "inputs": [
        {
          "name": "_rate",
          "type": "uint256"
        },
        {
          "name": "up",
          "type": "bool"
        },
        {
          "name": "unsafe",
          "type": "bool"
        }
      ],
      "name": "_changeRate",
      "outputs": [],
      "payable": false,
      "stateMutability": "nonpayable",
      "type": "function"
    },
    {
      "constant": false,
      "inputs": [],
      "name": "withdrawTokens",
      "outputs": [],
      "payable": false,
      "stateMutability": "nonpayable",
      "type": "function"
    }
  ],
  "bytecode": "0x60806040523480156200001157600080fd5b506040516101a08062000fbb83398101604090815281516020830151918301516060840151610140850151610160860151610180870151949693949293608001928787878784600083116200006557600080fd5b600160a060020a03821615156200007b57600080fd5b600160a060020a03811615156200009157600080fd5b60029290925560018054600160a060020a03928316600160a060020a0319918216179091556000805492909316911617905542821015620000d157600080fd5b81811015620000df57600080fd5b60049190915560055560068054600160a060020a0319163317905583514211156200010957600080fd5b8351602085015110156200011c57600080fd5b6020840151604085015110156200013257600080fd5b6040840151606085015110156200014857600080fd5b6060840151608085015110156200015e57600080fd5b608084015160a085015110156200017457600080fd5b6200018360098560066200019a565b505060119190915560125550620001fd9350505050565b8260068101928215620001cb579160200282015b82811115620001cb578251825591602001919060010190620001ae565b50620001d9929150620001dd565b5090565b620001fa91905b80821115620001d95760008155600101620001e4565b90565b610dae806200020d6000396000f30060806040526004361061013d5763ffffffff7c01000000000000000000000000000000000000000000000000000000006000350416631515bc2b811461014857806327e235e3146101715780632c4e722e146101a45780634042b66f146101b957806345b660bd146101ce5780634b6753bc146101f2578063521eb27314610207578063765e0a08146102385780638ab1d681146102505780638c10671c146102715780638cfae7e4146102915780638d8f2adb146102b25780638da5cb5b146102c75780639852595c146102dc5780639b19251a146102fd578063a2f3139c1461031e578063a7b5eb2114610333578063afe1712914610355578063b7a8807c1461036a578063ca2e2f491461037f578063e43252d714610394578063ec8ac4d8146103b5578063f2fde38b146103c9578063fc0c546a146103ea575b610146336103ff565b005b34801561015457600080fd5b5061015d6104a1565b604080519115158252519081900360200190f35b34801561017d57600080fd5b50610192600160a060020a03600435166104a9565b60408051918252519081900360200190f35b3480156101b057600080fd5b506101926104bb565b3480156101c557600080fd5b506101926104c1565b3480156101da57600080fd5b50610146600160a060020a03600435166024356104c7565b3480156101fe57600080fd5b50610192610520565b34801561021357600080fd5b5061021c610526565b60408051600160a060020a039092168252519081900360200190f35b34801561024457600080fd5b50610192600435610535565b34801561025c57600080fd5b50610146600160a060020a0360043516610549565b34801561027d57600080fd5b506101466004803560248101910135610581565b34801561029d57600080fd5b50610146600160a060020a03600435166105f2565b3480156102be57600080fd5b5061014661076a565b3480156102d357600080fd5b5061021c610848565b3480156102e857600080fd5b50610192600160a060020a0360043516610857565b34801561030957600080fd5b5061015d600160a060020a0360043516610869565b34801561032a57600080fd5b5061019261087e565b34801561033f57600080fd5b5061014660043560243515156044351515610884565b34801561036157600080fd5b5061019261092d565b34801561037657600080fd5b50610192610933565b34801561038b57600080fd5b50610192610939565b3480156103a057600080fd5b50610146600160a060020a036004351661093f565b610146600160a060020a03600435166103ff565b3480156103d557600080fd5b50610146600160a060020a036004351661097a565b3480156103f657600080fd5b5061021c610a0f565b34600061040c8383610a1e565b61041582610a51565b60035490915061042b908363ffffffff610a6e16565b6003556104388382610a7b565b60408051838152602081018390528151600160a060020a0386169233927f623b3804fa71d67900d064613da8f94b9617215ee90799290593e1745087ad18929081900390910190a361048a838361051c565b610492610b83565b61049c838361051c565b505050565b600554421190565b600f6020526000908152604090205481565b60025481565b60035481565b600654600160a060020a031633146104de57600080fd5b60045442101580156104f257506005544211155b15156104fd57600080fd5b600160a060020a038216151561051257600080fd5b61051c8282610a7b565b5050565b60055481565b600154600160a060020a031681565b6009816006811061054257fe5b0154905081565b600654600160a060020a0316331461056057600080fd5b600160a060020a03166000908152600760205260409020805460ff19169055565b600654600090600160a060020a0316331461059b57600080fd5b5060005b8181101561049c576001600760008585858181106105b957fe5b60209081029290920135600160a060020a0316835250810191909152604001600020805460ff191691151591909117905560010161059f565b600654600090600160a060020a0316331461060c57600080fd5b6106146104a1565b151561061f57600080fd5b60085460008054604080517f70a0823100000000000000000000000000000000000000000000000000000000815230600482015290516106c79493600160a060020a03909316926370a0823192602480820193602093909283900390910190829087803b15801561068f57600080fd5b505af11580156106a3573d6000803e3d6000fd5b505050506040513d60208110156106b957600080fd5b50519063ffffffff610bbf16565b60008054604080517fa9059cbb000000000000000000000000000000000000000000000000000000008152600160a060020a03878116600483015260248201869052915194955091169263a9059cbb92604480840193602093929083900390910190829087803b15801561073a57600080fd5b505af115801561074e573d6000803e3d6000fd5b505050506040513d602081101561076457600080fd5b50505050565b600080610775610bd1565b336000908152600f602052604090205490915081118015906107985750600e5442105b156107a5578091506107b8565b336000908152600f602052604090205491505b600082116107c557600080fd5b336000908152600f60205260409020546107e5908363ffffffff610bbf16565b336000908152600f6020526040902055600854610808908363ffffffff610bbf16565b6008553360009081526010602052604090205461082b908363ffffffff610a6e16565b3360008181526010602052604090209190915561051c9083610bfe565b600654600160a060020a031681565b60106020526000908152604090205481565b60076020526000908152604090205460ff1681565b60125481565b600654600160a060020a0316331461089b57600080fd5b8215156108a757600080fd5b81156108ec576002546108c190606e63ffffffff610c7016565b6108d284606463ffffffff610c7016565b1115806108dc5750805b15156108e757600080fd5b610926565b60025461090090605a63ffffffff610c7016565b61091184606463ffffffff610c7016565b10158061091b5750805b151561092657600080fd5b5050600255565b60085481565b60045481565b60115481565b600654600160a060020a0316331461095657600080fd5b600160a060020a03166000908152600760205260409020805460ff19166001179055565b600654600160a060020a0316331461099157600080fd5b600160a060020a03811615156109a657600080fd5b600654604051600160a060020a038084169216907f8be0079c531659141344cd1fd0a4f28419497f9722a3daafe3b4186f6b6457e090600090a36006805473ffffffffffffffffffffffffffffffffffffffff1916600160a060020a0392909216919091179055565b600054600160a060020a031681565b600160a060020a038216600090815260076020526040902054829060ff161515610a4757600080fd5b61049c8383610c99565b6000610a6860025483610c7090919063ffffffff16565b92915050565b81810182811015610a6857fe5b600854600090610a91908363ffffffff610a6e16565b60008054604080517f70a082310000000000000000000000000000000000000000000000000000000081523060048201529051939450600160a060020a03909116926370a0823192602480840193602093929083900390910190829087803b158015610afc57600080fd5b505af1158015610b10573d6000803e3d6000fd5b505050506040513d6020811015610b2657600080fd5b5051811115610b3457600080fd5b6008819055600160a060020a0383166000908152600f6020526040902054610b62908363ffffffff610a6e16565b600160a060020a039093166000908152600f60205260409020929092555050565b600154604051600160a060020a03909116903480156108fc02916000818181858888f19350505050158015610bbc573d6000803e3d6000fd5b50565b600082821115610bcb57fe5b50900390565b33600090815260106020526040812054610bf990610bed610cc2565b9063ffffffff610bbf16565b905090565b60008054604080517fa9059cbb000000000000000000000000000000000000000000000000000000008152600160a060020a038681166004830152602482018690529151919092169263a9059cbb92604480820193602093909283900390910190829087803b15801561073a57600080fd5b6000821515610c8157506000610a68565b50818102818382811515610c9157fe5b0414610a6857fe5b6004544210158015610cad57506005544211155b1515610cb857600080fd5b61051c8282610d61565b60008080805b600681108015610ce657504260098260068110610ce157fe5b015411155b15610d1657610cfc83600163ffffffff610a6e16565b9250610d0f81600163ffffffff610a6e16565b9050610cc8565b6000831115610d5a57610d57601154610d4b601254610d3f600188610bbf90919063ffffffff16565b9063ffffffff610c7016565b9063ffffffff610a6e16565b91505b5092915050565b600160a060020a0382161515610d7657600080fd5b80151561051c57600080fd00a165627a7a72305820148bfe68822ce445a4bfc24b32c3b14c79a99ec5da195eab2f5709c1c3798f990029",
  "source": "pragma solidity ^0.4.24;\r\n\r\nimport \"./CustomToken.sol\";\r\nimport \"./../node_modules/openzeppelin-solidity/contracts/crowdsale/validation/WhitelistedCrowdsale.sol\";\r\nimport \"./../node_modules/openzeppelin-solidity/contracts/crowdsale/validation/TimedCrowdsale.sol\";\r\n\r\n/*\r\n  Token sale contract for the private sale\r\n  This contract has time constraints and only whitelisted accounts can invest\r\n  Tokens will not be issued to the investor immediately, but stored in this contract until the lock-up ends.\r\n  When the lock-up has ended, investors can withdraw their tokens to their own account\r\n\r\n  A staged lock-up is used with 6 grades:\r\n    firstVestedLockUpAmount sit in lock-up until lockupEndTime[0]\r\n    stagedVestedLockUpAmounts sit in lock-up until lockupEndTime[1]\r\n    ...\r\n    stagedVestedLockUpAmounts sit in lock-up until lockupEndTime[6]\r\n\r\n  For example:\r\n  When an investor buys 3,000,000 tokens:\r\n      875,000 tokens in lock-up till Dec 31 2018\r\n    1,000,000 tokens in lock-up till Jun 30 2018\r\n    1,000,000 tokens in lock-up till Dec 31 2019\r\n      125,000 tokens in lock-up till Jun 30 2019\r\n*/\r\ncontract TranchedLockupPresale is TimedCrowdsale, WhitelistedCrowdsale  {\r\n    using SafeMath for uint256;\r\n\r\n    //Tokens sold (but locked in the contract)\r\n    uint256 public tokensStillInLockup;\r\n\r\n    //lock-up end time, 6 stages\r\n    uint256[6] public lockupEndTime;\r\n\r\n    //balances in the lock-ups\r\n    mapping(address => uint256) public balances;\r\n\r\n    //released from lock-ups\r\n    mapping(address => uint256) public released;\r\n\r\n    //vesting levels\r\n    uint256 public firstVestedLockUpAmount;\r\n    uint256 public stagedVestedLockUpAmounts;\r\n\r\n    //constructor function\r\n    //initializing lock-up periods and corresponding amounts of tokens\r\n    constructor\r\n        (\r\n            uint256 _openingTime,\r\n            uint256 _closingTime,\r\n            uint256 _rate,\r\n            address _wallet,\r\n            uint256[6] _lockupEndTime,\r\n            uint256 _firstVestedLockUpAmount,\r\n            uint256 _stagedVestedLockUpAmounts,\r\n            CustomToken _token\r\n        )\r\n        public\r\n        Crowdsale(_rate, _wallet, _token)\r\n        TimedCrowdsale(_openingTime, _closingTime)\r\n        {\r\n            // solium-disable-next-line security/no-block-members\r\n            require(_lockupEndTime[0] >= block.timestamp);\r\n            require(_lockupEndTime[1] >= _lockupEndTime[0]);\r\n            require(_lockupEndTime[2] >= _lockupEndTime[1]);\r\n            require(_lockupEndTime[3] >= _lockupEndTime[2]);\r\n            require(_lockupEndTime[4] >= _lockupEndTime[3]);\r\n            require(_lockupEndTime[5] >= _lockupEndTime[4]);\r\n\r\n            lockupEndTime = _lockupEndTime;\r\n\r\n            firstVestedLockUpAmount = _firstVestedLockUpAmount;\r\n            stagedVestedLockUpAmounts = _stagedVestedLockUpAmounts;\r\n        }\r\n\r\n\r\n    //Overrides parent by storing balances instead of issuing tokens right away.\r\n    // @param _beneficiary Token purchaser\r\n    // @param _tokenAmount Amount of tokens purchased\r\n    function _processPurchase(address _beneficiary, uint256 _tokenAmount) internal {\r\n\r\n        uint256 newTokensSold = tokensStillInLockup.add(_tokenAmount);\r\n        require(newTokensSold <= token.balanceOf(address(this)));\r\n        tokensStillInLockup = newTokensSold;\r\n\r\n        //add tokens to contract token balance (due to lock-up)\r\n        balances[_beneficiary] = balances[_beneficiary].add(_tokenAmount);\r\n\r\n    }\r\n\r\n    //when sale has ended, send unsold tokens back to token contract\r\n    // @param _beneficiary Token contract\r\n    function TransferUnsoldTokensBackToTokenContract(address _beneficiary) public onlyOwner {\r\n\r\n        require(hasClosed());\r\n        uint256 unSoldTokens = token.balanceOf(address(this)).sub(tokensStillInLockup);\r\n\r\n        token.transfer(_beneficiary, unSoldTokens);\r\n    }\r\n\r\n    //when sale isn't ended, issue tokens to investors paid with fiat currency\r\n    // @param _beneficiary Token purchaser (with fiat)\r\n    // @param _tokenAmount Amount of tokens purchased\r\n    function IssueTokensToInvestors(address _beneficiary, uint256 _amount) public onlyOwner onlyWhileOpen{\r\n\r\n        require(_beneficiary != address(0));\r\n        _processPurchase(_beneficiary, _amount);\r\n    }\r\n\r\n    //owner is able to change rate in case of big price fluctuations of ether (on the market), when unsafe is not set, it is only possible to change the rate +- 10%\r\n    function _changeRate(uint _rate, bool up, bool unsafe) public onlyOwner {\r\n        require(_rate != 0);\r\n        if(up) {\r\n          require(_rate.mul(100) <= rate.mul(110) || unsafe);\r\n        } else {\r\n          require(_rate.mul(100) >= rate.mul(90) || unsafe);\r\n        }\r\n        rate = _rate;\r\n    }\r\n\r\n    //Calculates the amount that has already vested but hasn't been released yet.\r\n    function releasableAmount() private view returns (uint256) {\r\n      return vestedAmount().sub(released[msg.sender]);\r\n    }\r\n\r\n    // Calculates the amount that has already vested.\r\n    function vestedAmount() private view returns (uint256) {\r\n      uint256 lockupStage = 0;\r\n      uint256 releasable = 0;\r\n\r\n      //determine current lock-up phase\r\n      uint256 i=0;\r\n      while (i < lockupEndTime.length && lockupEndTime[i]<=now)\r\n      {\r\n        lockupStage = lockupStage.add(1);\r\n        i = i.add(1);\r\n      }\r\n\r\n      //if lockupStage == 0 then all tokens are still in lock-up (first lock-up period not ended yet)\r\n      if(lockupStage>0)\r\n      {\r\n        //calculate the releasable amount depending on the current lock-up stage\r\n        releasable = (lockupStage.sub(1).mul(stagedVestedLockUpAmounts)).add(firstVestedLockUpAmount);\r\n      }\r\n      return releasable;\r\n    }\r\n\r\n    //Withdraw tokens only after lock-up ends, applying the staged lock-up scheme.\r\n    function withdrawTokens() public {\r\n      uint256 tobeReleased = 0;\r\n      uint256 unreleased = releasableAmount();\r\n\r\n      //max amount to be withdrawn is the releasable amount, excess stays in lock-up, unless all lock-ups have ended\r\n      if(balances[msg.sender] >= unreleased && lockupEndTime[lockupEndTime.length-1] > now)\r\n      {\r\n        tobeReleased = unreleased;\r\n      }\r\n      else\r\n      {\r\n        tobeReleased = balances[msg.sender];\r\n      }\r\n\r\n      //revert transaction when nothing to be withdrawn\r\n      require(tobeReleased > 0);\r\n\r\n      balances[msg.sender] = balances[msg.sender].sub(tobeReleased);\r\n      tokensStillInLockup = tokensStillInLockup.sub(tobeReleased);\r\n      released[msg.sender] = released[msg.sender].add(tobeReleased);\r\n\r\n      _deliverTokens(msg.sender, tobeReleased);\r\n\r\n    }\r\n\r\n}\r\n",
  "sourcePath": "C:\\Users\\Rinke Hendriksen\\Documents\\TruffleProjects\\Anonymous startMonday(Rinke collision 0)\\contracts\\TrancedLockupPresale.sol",
  "compiler": {
    "name": "solc",
    "version": "0.4.24+commit.e67f0147.Emscripten.clang"
  },
  "schemaVersion": "2.0.0",
  "updatedAt": "2018-06-12T09:14:25.979Z"
}